:04000300EF4E601349
:100007007557027558C7D558FDD557FAEF1F70ECCD
:010017001ECA
:0300180080E9225A
:09001E00075E1901010000000356
:05126B00C2B5C2B6226D
:050FE3002DFDEE3CFCB9
:060FE8008C558D56AB078D
:100FEE00D2B5E4FD74017E00A805088005C333CE9A
:100FFE0033CED8F9FFEBF582EF558224FF92B4D2AF
:10100E00B6C2B60DBD08DDE4FD74017E00A805086C
:10101E008005C333CE33CED8F9FFE5555EFEE556D7
:10102E005F4E24FF92B4D2B6C2B60DBD08DBC2B578
:01103E00228F
:02103F00AD07FB
:10104100E4F9430501D2B5FB74017E00A8030880D1
:1010510005C333CE33CED8F9FFEDF582EF558224A7
:10106100FF92B4C2B6D2B60BBB08DDE4FBD2B6C266
:10107100B630B40D7401A803088002C333D8FC4212
:0B108100010BBB08E8C2B5C2B4AF0110
:01108C002241
:100B5700E4FDFC7F8E120FE8E55E75F00A120CD1FA
:100B6700FF3395E0FEEFC4F8540FC868FFEEC45496
:100B7700F048FEE55E75F00A120CD1ADF0ED339545
:100B8700E0FCEF7F8C120FE3E55F75F00A120CD1E2
:100B9700FF3395E0FEEFC4F8540FC868FFEEC45466
:100BA700F048FEE55F75F00A120CD1ADF0ED339514
:100BB700E0FCEF7F88120FE3E56075F00A120CD1B5
:100BC700FF3395E0FEEFC4F8540FC868FFEEC45436
:100BD700F048FEE56075F00A120CD1ADF0ED3395E3
:100BE700E0FCEF2DFDEE3CFC7F86120FE8E561751A
:100BF700F00A120CD1FF3395E0FEEFC4F8540FC88A
:100C070068FFEEC454F048FEE56175F00A120CD196
:100C1700ADF0ED3395E0FCEF2DFDEE3CFC7F84124B
:100C27000FE8E56275F00A120CD1FF3395E0FEEF8D
:100C3700C4F8540FC868FFEEC454F048FEE5627567
:100C4700F00A120CD1ADF0ED3395E0FCEF2DFDEE7F
:100C57003CFC7F82120FE8E56375F00A120CD1FFA6
:100C67003395E0FEEFC4F8540FC868FFEEC454F0A4
:100C770048FEE56375F00A120CD1ADF0ED3395E04F
:100C8700FCEF2DFDEE3CFC7F80120FE8E56475F06C
:100C97000A120CD1FF3395E0FEEFC4F8540FC86871
:100CA700FFEEC454F048FEE56475F00A120CD1ADAE
:100CB700F0ED3395E0FCEF2DFDEE3CFC7F8A120F43
:0A0CC700E87D807C007F8E020FE8BC
:100D87007F8C12103FEFC4540F75F00AA4FEEF5486
:100D97000F2EF55E7F8812103FEFC4540F75F00ACF
:100DA700A4FEEF540F2EF55F7F8612103FEFC45459
:100DB7000F75F00AA4FEEF540F2EF5607F84121012
:100DC7003FEFC4540F75F00AA4FEEF540F2EF561E0
:100DD7007F8212103FEFC4540F75F00AA4FEEF5440
:100DE7000F2EF5627F8012103FEFC4540F75F00A83
:100DF700A4FEEF540F2EF5637F8A12103FEFC45401
:0C0E07000F75F00AA4FEEF540F2EF564E6
:010E130022BC
:100F8200E4F55520B1137F14FE12000330B1FD7F4A
:100F9200147E0012000375550120B0147F147E00E8
:100FA20012000330B0FD7F147E001200037555025B
:100FB20020B2147F147E0012000330B2FD7F147E33
:100FC2000012000375550320B3147F147E00120033
:100FD2000330B3FD7F147E00120003755504AF5534
:010FE20022EC
:06123F00C2A58F80D2A7BA
:081245007F027EEFDEFEDFFCFC
:01124D00227E
:0A124E00C2A612123FC2A702124509
:0A125800D2A612123FC2A7021245EF
:1011C600AE07BE0104ED148006BE0209ED243F44BD
:0611D60080FF12124E2200
:1011F2007F3812124E7F0C12124E7F0612124E7F51
:041202000102124E85
:0611A3008B558A568957A6
:1011A9001211C6E4FDAB55AA56A9578D8275830065
:0C11B900120CF3FF60061212580D80E9C2
:0111C5002207
:081155008E5A8F5B8C5C8D5DEE
:10115D007F017E00E4FBEBC3955DE55C6480F87474
:0E116D008098500AAC5AAD5B120D200B80E842
:01117B002251
:0410DB008A578B584D
:1010DF001211C6AA59EAD39400402DEA24FFFDE469
:1010EF0034FFFC7F0A7E00121155AC57AD58CFCD9F
:1010FF00CFCECCCE120D327C007D0A120D32ED24F4
:08110F0030FF1212581A80CDC6
:0111170022B5
:100EA000202000540020202D20202D2020204D4FD8
:100EB00044450020203A20203A20202053484F5714
:100EC0000020203A20203A202020534554200020A2
:100ED000203A20203A202020414C41524D00303011
:100EE0003A3030202020204D4F44450030302E3005
:100EF0003020202020532D5720200020203A202071
:100F00003A20202042454C4C200020203A20203A14
:090F100020202053484F57200017
:100F1900120D87E55EFB3395E0FA7559027D017F75
:100F2900011210DBE55FFB3395E0FA7559027D0488
:100F39007F011210DBE560FB3395E0FA7559027DFC
:100F4900077F011210DBE561FB3395E0FA75590261
:100F59007D017F021210DBE562FB3395E0FA7559DA
:100F6900027D047F021210DBE563FB3395E0FA751D
:090F790059027D077F020210DB22
:10048500E552B4020B0512E51275F0068485F012EB
:10049500E5526403600302055F745E2512F806D316
:1004A500E55E648094E34003E4F55ED3E55F648034
:1004B500948C4003755F01E55F64016023E55F642B
:1004C50003601DE55F64056017E55F64076011E57E
:1004D5005F6408600BE55F640A6005E55FB40C0BBB
:1004E500D3E5606480949F404D8048E55F64046077
:1004F50011E55F6406600BE55F64096005E55FB4BF
:100505000B0BD3E5606480949E402B8026E55FB499
:100515000224E55E75F004120CD1AFF0EF700BD339
:10052500E5606480949D400E8009D3E56064809405
:100535009C4003756001D3E561648094974003E4B2
:10054500F561D3E562648094BB4003E4F562D3E5CD
:1005550063648094BB4003E4F563E552640460037F
:1005650002065A745E2512F816C3E55E648094800F
:100575005003755E63C3E55F648094815003755FC6
:100585000CE55F64016023E55F6403601DE55F645E
:10059500056017E55F64076011E55F6408600BE5BA
:1005A5005F640A6005E55FB40C17C3E56064809479
:1005B50081500375601FD3E5606480949F4072800D
:1005C5006DE55F64046011E55F6406600BE55F64DB
:1005D500096005E55FB40B17C3E56064809481503D
:1005E5000375601ED3E5606480949E4044803FE5BA
:1005F5005F6402703CE55E75F004120CD1AFF0EF5C
:100605007017C3E56064809481500375601DD3E560
:10061500606480949D401A8015C3E5606480948170
:10062500500375601CD3E5606480949C400375603D
:1006350001C3E561648094805003756117C3E56269
:1006450064809480500375623BC3E5636480948045
:10065500500375633BE5127014E515B4010F7BFF7C
:100665007A0E79A07D017F011211A38011E55EFB51
:100675003395E0FA7559027D017F011210DBE51211
:10068500B40114E515B4010F7BFF7A0E79A07D0442
:100695007F011211A38011E55FFB3395E0FA7559CF
:1006A500027D047F011210DBE512B40214E515B4D6
:1006B500010F7BFF7A0E79A07D077F011211A380C0
:1006C50011E560FB3395E0FA7559027D077F01124C
:1006D50010DBE512B40314E515B4010F7BFF7A0EA8
:1006E50079A07D017F021211A38011E561FB33958D
:1006F500E0FA7559027D017F021210DBE512B404A0
:1007050014E515B4010F7BFF7A0E79A07D047F02F5
:100715001211A38011E562FB3395E0FA7559027D4C
:10072500047F021210DBE512B40512E515B4010DC4
:100735007BFF7A0E79A07D077F020211A3E563FB9B
:0F0745003395E0FA7559027D077F021210DB220F
:10002E00E552B40226E5547017755401855E0C85B1
:10003E005F0D85600E85610F856210856311800BE3
:10004E000512E51275F0068485F012E55264036020
:10005E00030201E0740C2512F806E50CD3946340FC
:10006E0003E4F50CE50DD3940C4003750D01E50D7D
:10007E0064016023E50D6403601DE50D64056017E2
:10008E00E50D64076011E50D6408600BE50D640A6B
:10009E006005E50DB40C09E50ED3941F4040803B7E
:1000AE00E50D64046011E50D6406600BE50D640951
:1000BE006005E50DB40B09E50ED3941E4020801BA0
:1000CE00E50DB40219E50C54037009E50ED3941D29
:1000DE00400C8007E50ED3941C4003750E01E50F0E
:1000EE00D394174003E4F50FE510D3943B4003E49B
:1000FE00F510E511D3943B4003E4F511AF5EEF33F9
:10010E0095E0FEC3E50C9FEE6480F8748098500372
:10011E00855E0CE50CB55E17AF5FEF3395E0FEC361
:10012E00E50D9FEE6480F87480985003855F0DE5B1
:10013E000CB55E1CE50DB55F17AF60EF3395E0FEB5
:10014E00C3E50E9FEE6480F8748098500385600EB0
:10015E00E50CB55E21E50DB55F1CE50EB56017AF7C
:10016E0061EF3395E0FEC3E50F9FEE6480F8748077
:10017E0098500385610FE50CB55E26E50DB55F2140
:10018E00E50EB5601CE50FB56117AF62EF3395E074
:10019E00FEC3E5109FEE6480F8748098500385626C
:1001AE0010E50C655E702BE50DB55F26E50EB560AE
:1001BE0021E50FB5611CE510B56217AF63EF3395FE
:1001CE00E0FEC3E5119FEE6480F8748098500385BD
:1001DE006311E55264046003020390740C2512F857
:1001EE0016E50CC394005003750C63E50DC3940122
:1001FE005003750D0CE50D64016023E50D6403607D
:10020E001DE50D64056017E50D64076011E50D64CD
:10021E0008600BE50D640A6005E50DB40C13E50EE0
:10022E00C394015003750E1FE50ED3941F405F80DB
:10023E005AE50D64046011E50D6406600BE50D646E
:10024E00096005E50DB40B13E50EC394015003755B
:10025E000E1EE50ED3941E40358030E50D640270FF
:10026E002DE50C54037013E50EC394015003750E67
:10027E001DE50ED3941D40168011E50EC39401505A
:10028E0003750E1CE50ED3941C4003750E01E50F8D
:10029E00C394005003750F17E510C39400500375F7
:1002AE00103BE511C39400500375113BAF5EEF3365
:1002BE0095E0FEC3E50C9FEE6480F87480985003C1
:1002CE00855E0CE50CB55E17AF5FEF3395E0FEC3B0
:1002DE00E50D9FEE6480F87480985003855F0DE500
:1002EE000CB55E1CE50DB55F17AF60EF3395E0FE04
:1002FE00C3E50E9FEE6480F8748098500385600EFF
:10030E00E50CB55E21E50DB55F1CE50EB56017AFCA
:10031E0061EF3395E0FEC3E50F9FEE6480F87480C5
:10032E0098500385610FE50CB55E26E50DB55F218E
:10033E00E50EB5601CE50FB56117AF62EF3395E0C2
:10034E00FEC3E5109FEE6480F874809850038562BA
:10035E0010E50C655E702BE50DB55F26E50EB560FC
:10036E0021E50FB5611CE510B56217AF63EF33954C
:10037E00E0FEC3E5119FEE6480F87480985003850B
:10038E006311E5547003020484E5127014E515B48C
:10039E00010F7BFF7A0E79A07D017F011211A380E0
:1003AE000FE50CFB7A007559027D017F011210DBFF
:1003BE00E512B40114E515B4010F7BFF7A0E79A096
:1003CE007D047F011211A3800FE50DFB7A00755994
:1003DE00027D047F011210DBE512B40214E515B4A0
:1003EE00010F7BFF7A0E79A07D077F011211A3808A
:1003FE000FE50EFB7A007559027D077F011210DBA7
:10040E00E512B40314E515B4010F7BFF7A0E79A043
:10041E007D017F021211A3800FE50FFB7A00755943
:10042E00027D017F021210DBE512B40414E515B44F
:10043E00010F7BFF7A0E79A07D047F021211A3803B
:10044E000FE510FB7A007559027D047F021210DB56
:10045E00E512B40512E515B4010D7BFF7A0E79A0F5
:10046E007D077F020211A3E511FB7A007559027D0B
:07047E00077F021210DB22D0
:10097300E552B40217E4F54AF54BF54CF54DF54E47
:10098300121118751101E4F517751401E552B4033A
:100993000CE51470047F0180027F008F14E552641C
:1009A300047065E5146042E553C3940A505AE55355
:1009B30075F005A42418F8A64AE55375F005A42498
:1009C30019F8A64BE55375F005A4241AF8A64CE5CF
:1009D3005375F005A4241BF8A64DE55375F005A443
:1009E300241CF8A64E0553801FE553D394004018EA
:1009F300E5177005751701800FE55314B54F07E42C
:100A0300F54FF5178002054FE5147002F516E5144E
:100A1300604CC2AFE516254EF54EE4F516D2AFE5B0
:100A23004ED39409403874F6254EF54E054DE54DE9
:100A3300D3940940EAE4F54D054CE54CD3943B408F
:100A4300DEE4F54C054BE54BD3943B40D2E4F54B48
:100A5300054AE54AD3946340C6E4F54A80C1E511EB
:100A63007003020B56E5177003020AFEE54F75F09B
:100A730005A42418F8E6FB7A007559027D017F016D
:100A83001210DBE54F75F005A42419F8E6FB7A0094
:100A93007559027D047F011210DBE54F75F005A443
:100AA300241AF8E6FB7A007559027D017F021210C1
:100AB300DBE54F75F005A4241BF8E6FB7A007559B6
:100AC300017D047F021210DBE54F75F005A4241CA1
:100AD300F8E6FB7A007559017D057F021210DB7B76
:100AE300FF7A0E79A37D077F021211A3E54FFB7AEC
:100AF300007559017D087F020210DBE54AFB7A008D
:100B03007559027D017F011210DBE54BFB7A0075FD
:100B130059027D047F011210DBE54CFB7A00755905
:100B2300027D017F021210DBE54DFB7A007559014E
:100B33007D047F021210DBE54EFB7A007559017DBF
:100B4300057F021210DB7BFF7A0E79A07D077F02FF
:040B53001211A322B6
:100754001211DC12126B120B571211F27BFF7A0E7C
:1007640079A57D017F011211A37BFF7A0E79B37DF8
:10077400017F021211A3120F828F52E552640160AD
:1007840003020889E51370207513017BFF7A0E7943
:10079400A57D017F011211A37BFF7A0E79C17D0132
:1007A4007F021211A302083BE513640160030208EF
:1007B40040751302120B577BFF7A0E79A57D017FDA
:1007C400011211A37BFF7A0E79CF7D017F021211F2
:1007D400A3E55EFB3395E0FA7559027D017F0112B2
:1007E40010DBE55FFB3395E0FA7559027D047F0168
:1007F4001210DBE560FB3395E0FA7559027D077F43
:10080400011210DBE561FB3395E0FA7559027D01B5
:100814007F021210DBE562FB3395E0FA7559027D25
:10082400047F021210DBE563FB3395E0FA7559028D
:100834007D077F021210DBE4F5128049E513B40250
:100844001F7513037BFF7A0E79DE7D017F01121180
:10085400A37BFF7A0E79EC7D017F021211A3802520
:10086400E513B40320E4F5137BFF7A0E79A57D012B
:100874007F011211A37BFF7A0E79B37D017F0212EF
:1008840011A3E4F511E5547003020949E51360036B
:1008940002094912117C8E508F51E5514550700365
:1008A400020949E4F550F551F5547BFF7A0E79A518
:1008B4007D017F011211A37BFF7A0E79FB7D017FFD
:1008C400021211A3E50CFB7A007559027D017F0128
:1008D4001210DBE50DFB7A007559027D047F0112CD
:1008E40010DBE50EFB7A007559027D077F011210BB
:1008F400DBE50FFB7A007559027D017F021210DBE4
:10090400E510FB7A007559027D047F021210DBE5C5
:1009140011FB7A007559027D077F021210DB7FDC20
:100924007E05121206E4F5137BFF7A0E79A57D018C
:100934007F011211A37BFF7A0F790A7D017F0212D6
:1009440011A3E4F511E5131460131460161460196F
:100954002403600302077A120F1902077A1204852E
:0F09640002077A12002E02077A12097302077A2D
:03001B000212626C
:09126200758DFC758B67B2A53295
:03002B0002108D33
:09108D00C0E0C0D075D000C0071E
:10109600C2CF0509E50970020508C394F4E5089472
:1010A600014012750800750900E51570047F01807E
:1010B600027F008F15050BE50B7002050AC3940A23
:0E10C600E50A94004008750A00750B00051637
:0710D400D007D0D0D0E032BC
:10111800E4F553F54FFFEF75F005A42418F8E4F64D
:10112800EF75F005A42419F8E4F6EF75F005A4248A
:101138001AF8E4F6EF75F005A4241BF8E4F6EF7549
:0C114800F005A4241CF8E4F60FBF0ACA4E
:011154002278
:101206008E558F5612122CAF56AE55120003C28E53
:03121600C2A5224C
:10117C00E50CB55E1EE50DB55F19E50EB56014E521
:10118C000FB5610FE510B5620AE511B563057E0078
:07119C007F0122E4FEFF22A7
:101219005389F0438901758CFC758A67D2A9D28CF0
:03122900D2AF221F
:10122C0053890F438910758DFC758B67D2ABD28EA9
:03123C00D2AF220C
:1011DC0075CBFC75CA6775CDFC75CC67E4F5C8D2C8
:0611EC00ADD2CAD2AF2211
:03000000020E14D9
:0C0E1400787FE4F6D8FD758164020E5B67
:100CD100C2D530F707B2D563F0FF05F030E70CB2AB
:100CE100D5F4048463F0FF05F080018430D502F46B
:020CF1000422DB
:100CF300BB010CE58229F582E5833AF583E02250B6
:100D030006E92582F8E622BBFE06E92582F8E222FF
:0D0D1300E58229F582E5833AF583E4932219
:100D2000EF8DF0A4A8F0CF8CF0A428CE8DF0A42EE7
:020D3000FE22A1
:100D3200BC000BBE0029EF8DF084FFADF022E4CCA5
:100D4200F875F008EF2FFFEE33FEEC33FCEE9DEC6E
:100D5200984005FCEE9DFE0FD5F0E9E4CEFD22EDB4
:100D6200F8F5F0EE8420D21CFEADF075F008EF2FFE
:100D7200FFED33FD4007985006D5F0F222C398FDEF
:050D82000FD5F0EA228C
:100E2000020754E493A3F8E493A34003F68001F28D
:100E300008DFF48029E493A3F85407240CC8C333D3
:100E4000C4540F4420C8834004F456800146F6DFA2
:100E5000E4800B010204081020408090001EE47E14
:100E6000019360BCA3FF543F30E509541FFEE49397
:100E7000A360010ECF54C025E060A840B8E493A35E
:100E8000FAE493A3F8E493A3C8C582C8CAC583CA89
:100E9000F0A3C8C582C8CAC583CADFE9DEE780BE41
:0100270000D8
:00000001FF
